:1000000012C017C016C015C014C013C012C011C052
:1000100010C00FC00EC00DC00CC00BC00AC009C07C
:1000200008C007C006C011241FBECFEDCDBF36D01B
:1000300054C0E6CF82E480BF81E083BF88E686BFFC
:10004000089584E087BB81E892E10197F1F700C051
:100050000000BA98EFEAF4E03197F1F700C0000031
:100060002CE080E59AE034E037BB93FF05C0EFE574
:10007000F9E03197F1F704C0EFEAF4E03197F1F7D6
:1000800000C00000BA98EFEAF4E03197F1F700C041
:100090000000880F991F215039F70895CBDF2FEF0B
:1000A00083E294EF215080409040E1F700C00000CF
:1000B000C8DF29EB86E191E0215080409040E1F7D4
:1000C0000000BFDF85B7806585BF85B7806285BFCB
:0E00D000889585B78F7D85BFFFCFF894FFCF51
:00000001FF
